{
  "abi": [
    {
      "anonymous": false,
      "inputs": [
        {
          "indexed": false,
          "internalType": "address",
          "name": "buyer",
          "type": "address"
        },
        {
          "indexed": false,
          "internalType": "address",
          "name": "seller",
          "type": "address"
        },
        {
          "indexed": false,
          "internalType": "uint256",
          "name": "value",
          "type": "uint256"
        }
      ],
      "name": "Transfer",
      "type": "event"
    },
    {
      "inputs": [
        {
          "internalType": "address payable",
          "name": "_to",
          "type": "address"
        }
      ],
      "name": "transfer",
      "outputs": [
        {
          "internalType": "bool",
          "name": "",
          "type": "bool"
        }
      ],
      "stateMutability": "payable",
      "type": "function"
    }
  ],
  "bytecode": "608060405234801561001057600080fd5b5060e78061001f6000396000f3fe608060405260043610601c5760003560e01c80631a695230146021575b600080fd5b6030602c3660046083565b6044565b604051901515815260200160405180910390f35b6040516000906001600160a01b038316903480156108fc029184818181858888f19350505050158015607a573d6000803e3d6000fd5b50600192915050565b600060208284031215609457600080fd5b81356001600160a01b038116811460aa57600080fd5b939250505056fea26469706673582212204b4bfbda90b052eaf7dae7840dd6db15da2a46e642173a128d00c678994ba9fb64736f6c634300080b0033",
  "bytecodeSha1": "550c8a0c93c5733807a4d892bab4916a44472678",
  "compiler": {
    "evm_version": "istanbul",
    "optimizer": {
      "enabled": true,
      "runs": 200
    },
    "version": "0.8.11+commit.d7f03943"
  },
  "contractName": "Transaction",
  "language": "Solidity",
  "natspec": {
    "kind": "dev",
    "methods": {},
    "version": 1
  },
  "opcodes": "PUSH1 0x80 PUSH1 0x40 MSTORE PUSH1 0x4 CALLDATASIZE LT PUSH1 0x1C JUMPI PUSH1 0x0 CALLDATALOAD PUSH1 0xE0 SHR DUP1 PUSH4 0x1A695230 EQ PUSH1 0x21 JUMPI JUMPDEST PUSH1 0x0 DUP1 REVERT JUMPDEST PUSH1 0x30 PUSH1 0x2C CALLDATASIZE PUSH1 0x4 PUSH1 0x83 JUMP JUMPDEST PUSH1 0x44 JUMP JUMPDEST PUSH1 0x40 MLOAD SWAP1 ISZERO ISZERO DUP2 MSTORE PUSH1 0x20 ADD PUSH1 0x40 MLOAD DUP1 SWAP2 SUB SWAP1 RETURN JUMPDEST PUSH1 0x40 MLOAD PUSH1 0x0 SWAP1 PUSH1 0x1 PUSH1 0x1 PUSH1 0xA0 SHL SUB DUP4 AND SWAP1 CALLVALUE DUP1 ISZERO PUSH2 0x8FC MUL SWAP2 DUP5 DUP2 DUP2 DUP2 DUP6 DUP9 DUP9 CALL SWAP4 POP POP POP POP ISZERO DUP1 ISZERO PUSH1 0x7A JUMPI RETURNDATASIZE PUSH1 0x0 DUP1 RETURNDATACOPY RETURNDATASIZE PUSH1 0x0 REVERT JUMPDEST POP PUSH1 0x1 SWAP3 SWAP2 POP POP JUMP JUMPDEST PUSH1 0x0 PUSH1 0x20 DUP3 DUP5 SUB SLT ISZERO PUSH1 0x94 JUMPI PUSH1 0x0 DUP1 REVERT JUMPDEST DUP2 CALLDATALOAD PUSH1 0x1 PUSH1 0x1 PUSH1 0xA0 SHL SUB DUP2 AND DUP2 EQ PUSH1 0xAA JUMPI PUSH1 0x0 DUP1 REVERT JUMPDEST SWAP4 SWAP3 POP POP POP JUMP INVALID LOG2 PUSH5 0x6970667358 0x22 SLT KECCAK256 0x4B 0x4B 0xFB 0xDA SWAP1 0xB0 MSTORE 0xEA 0xF7 0xDA 0xE7 DUP5 0xD 0xD6 0xDB ISZERO 0xDA 0x2A CHAINID 0xE6 TIMESTAMP OR GASPRICE SLT DUP14 STOP 0xC6 PUSH25 0x994BA9FB64736F6C634300080B003300000000000000000000 ",
  "sha1": "4a0672ab13880547b0de436b11436298af20ad7f",
  "source": "// SPDX-License-Identifier: MIT\npragma solidity 0.8.11;\n\ncontract Transaction {\n    mapping(address => uint256) balances;\n\n    event Transfer(address buyer, address seller,uint value);\n\n\n\n    function transfer(address payable _to) external payable returns (bool) {\n        /* _to.transfer( msg.value); */\n        _to.transfer(msg.value);\n        /* _to.transfer(0.1 ether); */\n        return true;\n    }\n\n}\n",
  "sourcePath": "contracts/Transaction.sol",
  "type": "contract"
}